S02B00005475726E696E67206F6E5F6F6666204C454420646570656E64696E67206F6E20636F756E7465722056
S11300000C9436000C9440000C9440000C94400076
S11300100C9440000C9440000C9440000C9440005C
S11300200C9440000C9440000C9440000C9440004C
S11300300C9440000C9440000C9440000C9440003C
S11300400C9440000C9440000C9440000C9440002C
S11300500C9440000C9440000C9440000C9440001C
S11300600C9440000C9440000C94400011241FBEDA
S1130070CFEFD4E0DEBFCDBF0E9447000C944E000A
S11300800C94000085B5856085BD259A08950E946D
S11300904200A89BFECF1D9AA89AFBCFF894FFCFED
S9030000FC
