S02600005573696E672074696D6572206F766572666C6F7720696E746572727570742E7372656316
S11300000C9436000C9453000C9453000C9453003D
S11300100C9453000C9453000C9453000C94530010
S11300200C9453000C9453000C9453000C94530000
S11300300C9453000C9453000C9453000C945300F0
S11300400C9455000C9453000C9453000C945300DE
S11300500C9453000C9453000C9453000C945300D0
S11300600C9453000C9453000C94530011241FBEA1
S1130070CFEFD4E0DEBFCDBF11E0A0E0B1E0EEEF02
S1130080F0E002C005900D92A030B107D9F721E04D
S1130090A0E0B1E001C01D92A130B207E1F70E94D7
S11300A07A000C947D000C9400001F920F920FB6FE
S11300B00F9211248F9380910001883220F48F5F76
S11300C08093000103C01D9A109200018F910F903C
S11300D00FBE0F901F90189585B5846085BD85B5BA
S11300E0816085BD259AEEE6F0E0808181608083A1
S11100F0789408950E946C00FFCFF894FFCF1F
S9030000FC
