S02600005475726E696E67206F6E204C4544207769746820696E74657272757074732E73726563C9
S11300000C9436000C9440000C9440000C94420074
S11300100C9440000C9440000C9440000C9440005C
S11300200C9440000C9440000C9440000C9440004C
S11300300C9440000C9440000C9440000C9440003C
S11300400C9440000C9440000C9440000C9440002C
S11300500C9440000C9440000C9440000C9440001C
S11300600C9440000C9440000C94400011241FBEDA
S1130070CFEFD4E0DEBFCDBF0E945A000C945D00E8
S11300800C9400001F920F920FB60F9211241D9A28
S11300900F900FBE0F901F901895EBE6F0E0808153
S11300A080688083E8E6F0E08081816080837894D2
S11100B0259A08950E944D00FFCFF894FFCFCB
S9030000FC
