:100000000C9436000C9440000C9440000C9440007A
:100010000C9440000C9440000C9440000C94400060
:100020000C9440000C9440000C9440000C94400050
:100030000C9440000C9440000C9440000C94400040
:100040000C9440000C9440000C9440000C94400030
:100050000C9440000C9440000C9440000C94400020
:100060000C9440000C9440000C94400011241FBEDE
:10007000CFEFD4E0DEBFCDBF0E944B000C94580000
:100080000C94000085B5846085BD85B5816085BD13
:1000900080E284B908950E94420080E0A89BFECFD0
:1000A000A89A8E3110F48F5FF9CF1D9A80E0F6CFB9
:0400B000F894FFCFF2
:00000001FF
